:020000040800F2
:10000000D0090020890100080D260008ED1F000816
:1000100009260008B5030008CD26000800000000EE
:10002000000000000000000000000000152600088D
:10003000C50300080000000011260008192600086A
:10004000A3010008A3010008A3010008A301000800
:10005000A3010008A3010008A3010008A3010008F0
:10006000A3010008A3010008A3010008B9030008C8
:10007000A3010008A3010008A3010008A3010008D0
:10008000A3010008A3010008A3010008A3010008C0
:10009000A3010008A3010008A3010008A3010008B0
:1000A000A3010008A3010008A3010008A3010008A0
:1000B000B5260008A3010008C1260008A301000816
:1000C000A3010008A3010008A3010008A301000880
:1000D000A3010008A3010008A3010008A301000870
:1000E000A3010008A3010008A301000800F002F822
:1000F00000F03AF80AA090E8000C82448344AAF188
:100100000107DA4501D100F02FF8AFF2090EBAE885
:100110000F0013F0010F18BFFB1A43F0010318473B
:10012000BC3E0000DC3E0000103A24BF78C878C115
:10013000FAD8520724BF30C830C144BF04680C60ED
:10014000704700000023002400250026103A28BF35
:1001500078C1FBD8520728BF30C148BF0B60704739
:100160001FB51FBD10B510BD00F06CF81146FFF7AC
:10017000F7FF02F035FB00F08AF803B4FFF7F2FF57
:1001800003BC00F08DF8000009488047094800478B
:10019000FEE7FEE7FEE7FEE7FEE7FEE7FEE7FEE737
:1001A000FEE7FEE704480549054A064B7047000094
:1001B000B1260008ED000008D0030020D00900207F
:1001C000D0050020D00500204FF0000200B51346F6
:1001D00094469646203922BFA0E80C50A0E80C5067
:1001E000B1F12001BFF4F7AF090728BFA0E80C5018
:1001F00048BF0CC05DF804EB890028BF40F8042B11
:1002000008BF704748BF20F8022B11F0804F18BF7D
:1002100000F8012B704770477047704710B500F029
:1002200009F8006810BD10B5044600F003F804603A
:1002300010BD0000004870471000002000487047C3
:10024000100000207546FFF7F9FFAE46050069462D
:10025000534620F00700854618B020B5FFF7A2FFEF
:10026000BDE820404FF000064FF000074FF00008B7
:100270004FF0000BAC46ACE8C009ACE8C009ACE8F4
:10028000C009ACE8C00921F007018D46704710B5E0
:100290000446AFF300802046BDE81040FFF76DBF75
:1002A00001491820ABBEFEE726000200704700009F
:1002B0000146406A826A12F0500F03D0006A026B56
:1002C000084610470168826A42F4007282628968B7
:1002D00001F46021B1F5602F01D1017B09B100F07B
:1002E00001B9816A21F480718162816AC90448BFC1
:1002F00000F0F8B8816A41F00101816200F0F2B8C3
:10030000406A816A41F040018162C16A41F00401A2
:10031000C16200F03DB90000406A00F037B900004A
:10032000B0B582B004460020019021688A68D207E7
:100330003DD1886840F00100886040F20000C2F2C0
:10034000000000684DF68361C4F21B31A0FB01017F
:10035000880C00BF0190019810B101980138F9E7AD
:1003600000F024FD21688968C9071CD1054603E017
:1003700020688068C00719D100F018FD401B0328D1
:10038000F6D320688068C007F2D1A06A40F0100060
:10039000A062E06A40F00100E062002084F82400DE
:1003A000012002B0B0BD002002B0B0BD002002B0FC
:1003B000B0BD0000FEE7000040F27010C2F2000085
:1003C00000F084BA70470000EFF3108072B600BFEF
:1003D000FEE70000B0B581B00022009290F8242022
:1003E000012A01D1022179E04A680123062A02EBA1
:1003F000820C80F8243005D8026802F1340E6FF0C8
:1004000004020AE003680C2A87BF03F12C0E6FF088
:10041000400203F1300E6FF022026244DEF800C0A9
:100420001F230C6893402CEA030304FA02F21A43D8
:10043000CEF80020D1F800E002680EEB4E04102345
:10044000BEF1090F88BF1E3C88BF0C2352F803C0C1
:1004500007258968A5402CEA0505A1402943D1500C
:100460002EF001014FF0000C10294FF0000133D1A4
:10047000016842F20042C4F20102914205D0816A51
:1004800041F020018162012126E09268120222D40B
:100490008A68BEF1100F42F400028A601BD140F25C
:1004A0000001C2F2000109684DF68362C4F21B32FA
:1004B000A1FB0212910C01EB81014900009100990E
:1004C00049B100BF009901390091009900294FF00E
:1004D0000001F7D100E0002180F824C0084601B0F7
:1004E000B0BD00002DE9F04F006842F20041C4F2B7
:1004F0000101884218BFBDE8F08F40F2B430C2F26B
:100500000000002340F2B83E40F2BC3840F2C0394F
:1005100040F2C43A40F2700B0360C2F2000EC2F225
:100520000008C2F20009C2F2000AC2F2000B002564
:100530000026002700220020CEF80030C8F8003046
:10054000C9F80030CAF800300BEB43013BF8134008
:10055000B1F802C025446644B1F804C0CC880989CA
:100560000533DBB267442244642B0844ECD340F2E9
:10057000B431C2F200010D60CEF80060C8F800701E
:10058000C9F80020CAF80000BDE8F08F70470000ED
:1005900070470000B0B5002846D00446806A30B9E4
:1005A0000020E06284F82400204600F0A1F82068D2
:1005B0008168C90709D0816821F00101816000F0DC
:1005C000F5FB21688968C90730D100200121A36AA1
:1005D000A26A31B313F0100123D141F2021122EAD1
:1005E00001010231A162E169D4E9013241EA030C5F
:1005F000531EB3FA83F35D091346B2F5807F18BF2B
:100600002B02217D257B01294CEA450E31D13DB3DA
:10061000A56A45F02005A562E56A45F00105E56299
:1006200027E042F01000A0620120B0BD054603E0C3
:1006300020688068C007C8D000F0B8FB401B0328C2
:10064000F6D320688068C007F2D0A06A002140F08D
:100650001000A062E06A40F00100E0620120B6E70D
:10066000D4F818C04EF60005CFF6FF7505EB4C35F3
:100670002B432568B2F5807F696821F4694141EA1E
:1006800003016960A9684FF2FD73CFF6E17301EAD7
:10069000030141EA0E01A96001D0012A06D12169B6
:1006A0000022CFF6F07202EB015200E00022E96A6C
:1006B00021F470011143E962A96840F6FE62CFF6A9
:1006C0001F721140714507D10021E162A16A012228
:1006D00062F30101A162B0BDA06A40F0100020F0F9
:1006E0000200A062E06A40F00100E0620120B0BDBB
:1006F00070B586B0044640F60000C4F201002168DF
:1007000000F5E052002691420596CDE90366029677
:1007100001D006B070BD41F21801C4F202010A68AE
:1007200042F400720A600A6802F400720192019AAF
:100730000A6842F004020A60096801F004010191AC
:1007400001991F2102910321039102A900F01AFAD5
:1007500040F270150820C2F20005C4F202004FF406
:100760008072C5E9000605F1100080214FF4806316
:100770004FF0200C80E80C102846C5E90261EE61BC
:1007800000F05CF9002818BFFFF71EFE25626C62BE
:1007900006B070BD2DE9F0410546006842F600063E
:1007A000C4F201069046B0420F4605D042F2004125
:1007B000C4F2010188420AD142F20440C4F20100AD
:1007C000006810F4702F1CBF0120BDE8F08195F87F
:1007D0002400012804BF0220BDE8F081012085F833
:1007E00024002846FFF79CFD044628B1002085F828
:1007F00024002046BDE8F08142F204402968AA6A3C
:10080000C4F2010040F601739A4300F57F7302F5CC
:1008100080729942AA6207D0A86A20F48010A86268
:100820004868400518D512E0026812F4702FF3D022
:10083000AA6AB14242F48012AA6205D042F2004292
:10084000C4F20102914207D10068400504D5A86AAC
:10085000012262F30D30A862AA6A0020D2044FF090
:10086000000244BFEA6A22F00602EA6285F8240028
:10087000286A40F2B122C0F6000240F2193340F279
:10088000013600F1280CC0F60003C0F600068CE823
:100890004C006FF002020A608A68434642F480729C
:1008A0008A604C313A4600F00DF92868816801F4FD
:1008B00060228168B2F5602F0CBF41F4A00141F4C1
:1008C000801181602046BDE8F081000010B5D0E9BC
:1008D0000FCE0168DCF800300A6823FA0EF35C07DB
:1008E00024D512F0040421D00A68920603D40A68C1
:1008F00022F004020A602F22C4F20202914240F266
:100900000402C4F2020253DD3023C4F2020399420E
:1009100066D04423C4F20203994264D05823C4F23F
:100920000203994264D14FF4802369E09C0727D5E4
:1009300012F0020424D00A68920606D40A6822F053
:100940000A020A60012280F821202F22C4F202024A
:10095000914240F20402C4F2020235DD3023C4F2B7
:100960000203994252D04423C4F20203994250D068
:100970005823C4F20203994250D14FF4003355E09A
:100980001B075AD512F0080208BF10BD0A6822F0F2
:100990000E020A60012101FA0EF2CCF804208163F4
:1009A00080F82110016B002280F8202059BB44E020
:1009B0000823C4F20203994218D01C23C4F2020394
:1009C000994215D140231BE00823C4F20203994247
:1009D00022D01C23C4F2020399421FD1202325E018
:1009E0004FF480630CE04FF4804309E0042307E0F8
:1009F00002F168044FF08063A14208BF4FF4800306
:100A00001360C16AC9B1BDE8104008474FF40073D4
:100A10000CE04FF4005309E0022307E002F1680400
:100A20004FF00073A14208BF4FF400131360816AB6
:100A30000022002980F82020E5D110BD01460028C1
:100A40004FF0010008BF70472DE9F043D1F800C016
:100A50004FF6F873CBF6FD734CF6CD426344CCF6FB
:100A6000CC42A3FB02236FF0030707EA930300279E
:100A7000C4F2020701F10C09C1E90F730223D1E9A5
:100A8000012E99E87002D1F81C8081F82130DCF841
:100A9000003043F6F077BB431A4342EA0E0222438A
:100AA0002A43324342EA090242EA0802CCF8002013
:100AB00000228A6381F8210081F820200020BDE80F
:100AC000F0437047F0B590F820C0BCF1010F2FD073
:100AD0004FF0010E80F820E090F821C0BCF1010F2A
:100AE00023D14FF0020C80F821C04FF0000CC0F869
:100AF00038C0D0E900C4C56AC66BDCF80070102CA1
:100B000027F00107CCF80070006C0EFA00F070605E
:100B10000846CCF8043004BF10460A46CCF808005A
:100B2000CCF80C2035B10E200BE0002180F820100D
:100B30000220F0BDDCF8000020F00400CCF800003A
:100B40000A20DCF800100843CCF80000DCF80000B4
:100B500040F00100CCF800000020F0BDB0B5044624
:100B600000F024F9054640F20500C2F200000078CA
:100B7000611C18BF044400BF00F018F9401BA042DC
:100B8000FAD3B0BD2DE9F04F82B00E68002E00F010
:100B9000F68041F20042C4F20102042340F2004E0A
:100BA000904208BF03234FF6FF7CC4F2010E00936E
:100BB00000240123C1F2100C4FF0000A4FF000098D
:100BC00043E0012704F00C030F229A402BEA0202B3
:100BD00007FA03F34FEA9A051A4346F825204E68B0
:100BE00040F20C45F202DEF8082054BF22EA080267
:100BF00042EA0802C4F20105CEF808202A68B302CE
:100C000054BF22EA080242EA08022A60B303DEF86F
:100C1000042054BF22EA080242EA0802F303CEF895
:100C20000420DEF800204FF0010354BF22EA08023E
:100C300042EA0802CEF800200E680AF1010A36FAEC
:100C40000AF204F1040400F09A8003FA0AFB16EA9F
:100C50000B08F1D04E68664510DC122E50D8DFE844
:100C600006F0330A41454F4F4F4F4F4F4F4F4F4FB5
:100C70004F4F4F484C00D1F80C9041E04FF6FF72B7
:100C8000C1F2210296420FDC0022C1F2110296420B
:100C90001AD00022C1F21202964215D00022C1F2EF
:100CA0002102964210D02BE00022C1F2220296428D
:100CB0000AD00022C1F23102964205D00022C1F2D0
:100CC000320296421CD100BF8A6842B1012A14BF89
:100CD000C0F814B0C0F810B04FF0080910E04FF0A1
:100CE00004090DE0CA6802F1080909E04FF00009A3
:100CF00006E0CA6802F1040902E0CA6802F10C09C0
:100D000022460646B8F5807F24BF203A043637686D
:100D10000F25954027EA050509FA02F22A433260B9
:100D2000CA79D2067FF588AF41F21803C4F20203F4
:100D30001A68AEF57E7642F001021A601A6802F077
:100D400001020192019A2AF0030256F802B040F61D
:100D50000002C4F2010290420FD040F60042C4F2F9
:100D6000010290423FF42DAF41F20002C4F20102B1
:100D7000009F904208BF022724E7002722E702B025
:100D8000BDE8F08F8068084018BF01207047000060
:100D9000C26802EA0103914341EA034101617047DD
:100DA000002A08BF090401617047000040F2C83002
:100DB000C2F200000068704740F2050040F2C831FE
:100DC000C2F20000C2F2000100780A681044086014
:100DD0007047000080B542F20000C4F202000168D2
:100DE00041F010010160032000F08EF80F2000F0A8
:100DF00005F800F02BF8002080BD0000B0B540F2EF
:100E00000502C2F2000240F200011278C2F20001B3
:100E10004FF47A730968B3FBF2F20446B1FBF2F1C6
:100E2000084600F07BFB0F2C4FF001050CD858B999
:100E30004FF0FF3021460022002500F039F840F243
:100E40000800C2F2000004602846B0BD82B041F242
:100E50001800C4F202000168022241F001010160A1
:100E6000016801F0010101910199416841F080514F
:100E70004160406800F08050009000980420C4F267
:100E80000100016862F31A61016002B0704700005E
:100E9000002848BF704700F01F01012202FA01F14B
:100EA0004EF200124009CEF2000242F820107047C4
:100EB00010B54EF60C5CCEF2000CDCF80030C3F33B
:100EC000022E8EF00704042C28BF0424BEF1030375
:100ED0004FF0FF3E0EFA04F438BF0023A1439940BF
:100EE0000EFA03F39A43114300F1604200F00F033E
:100EF000090102F56442043B6344002848BF03F142
:100F00000C02117010BD00004EF60C51CEF2000123
:100F10000A684FF6FF031A4060F30A2242F080602D
:100F200040F0FD70086070472DE9F04182B0044642
:100F3000007841F21C06C007C4F202064AD03068AD
:100F400010F0805808D1306840F080503060306830
:100F500000F080500190019847F20007C4F20007AA
:100F60003868C00512D4386840F480703860FFF7E4
:100F70001DFF05463868C00508D4FFF717FF401B62
:100F80006428F7D9032002B0BDE8F081706810F43E
:100F9000407012D0616801F4407188420DD07068D1
:100FA00040F24042C4F24222012320F44071136017
:100FB0000023C0071360716029D17068616820F454
:100FC00040700843B8F1000F706003D1306820F022
:100FD000805030602068810707D556F8181CA26839
:100FE00021F44041114346F8181CC00603D40020E8
:100FF00002B0BDE8F08156F8180CE16820F48000DA
:10100000084346F8180C002002B0BDE8F081FFF755
:10101000CDFE054641F2883770688007CDD4FFF7D2
:10102000C5FE401BB8424FF00300F5D9ECE70000C5
:101030002DE9F04381B0002800F0858042F20008DD
:10104000C4F202080446D8F800000D4600F007007C
:1010500088420CD2D8F8000020F007002843C8F8D6
:101060000000D8F8000000F00700A8426BD120680B
:1010700041F204098107C4F2020917D5410705D5D9
:10108000D9F8001041F4E061C9F80010010705D556
:10109000D9F8001041F46051C9F80010D9F80010D7
:1010A000A26821F0F0011143C9F80010C00741D136
:1010B000D8F8000000F00700A8420CD9D8F80000CA
:1010C00020F007002843C8F80000D8F8000000F01E
:1010D0000700A84237D12068410707D5D9F800108A
:1010E000E26821F4E0611143C9F80010000708D557
:1010F000D9F80000216920F4605040EAC100C9F825
:101100000000D9F8002002F00C00082841F200206D
:10111000C0F27A004ED143F6CA73C2F38341C0F6DF
:101120000003595CD20339D440F60010C0F23D00F0
:1011300048433FE06068022809D0012829D159F8C6
:10114000041C890307D4012001B0BDE8F08359F8DD
:10115000041C8901F7D5D9F8001021F003010843D8
:10116000C9F80000FFF722FE064641F2883700BFAB
:10117000D9F80000616800F00C00B0EB810F97D047
:10118000FFF714FE801BB842F2D9032001B0BDE87E
:10119000F08359F8041C8907D5D5DCE7D9F800207D
:1011A00043F6C873C2F34042C0F600039A5C48435A
:1011B000B0FBF2F0D9F8001043F6B872C1F3031196
:1011C000C0F60002515C40F2000220FA01F140F248
:1011D0000800C2F200000068C2F200021160FFF7CE
:1011E0000DFE002001B0BDE8F08300002DE9F041C4
:1011F00082B0002800F0D7800446007841F2000653
:10120000C007C4F2020644D0706800F00C00042845
:1012100017D0706800F00C00082802D17068C00375
:101220000FD465682DB1B5F5A02F10D0B5F5803F6E
:1012300011D0306820F480303060306820F4802095
:101240000CE03068800324D5606810BBABE03068E8
:1012500040F480203060306840F480303060FFF728
:10126000A5FD002D054611D03068800311D4FFF78D
:101270009DFD401B6428F7D916E100BFFFF796FDDE
:10128000401B64284FF0030000F28A80306880031E
:10129000F4D42078800718D5706810F00C0F07D0B0
:1012A000706800F00C00082827D17068C00324D4AF
:1012B0003068800702D52069012874D130686169DF
:1012C00020F0F80040EAC1003060207800074FD5D8
:1012D000A06940B30020C4F242200121C0F880146C
:1012E000FFF764FD054600BF706A80072DD4FFF745
:1012F0005DFD401B0228F7D9D6E02069002840F2A6
:101300000000C4F2422000F0A68001210160FFF736
:101310004DFD054630688007D0D4FFF747FD401BE0
:101320000228F7D9C0E00020C4F242200021C0F812
:101330008014FFF73BFD0546706A800718D5FFF75C
:1013400035FD401B0228F7D9AEE040F20000C2F2A2
:101350000000006844F6D351C1F26201A0FB010114
:10136000480A019000BF0198411E00280191F9D15F
:10137000207840071BD4E5698DB1706800F00C003F
:10138000082846D1012D0ED07068216A00F4803201
:101390008A4208D1616A00F47010884203D10020AB
:1013A00002B0BDE8F081012002B0BDE8F081F06933
:1013B00010F0805808D1F06940F08050F061F06979
:1013C00000F080500090009847F20007C4F2000738
:1013D0003868C0050FD4386840F480703860FFF773
:1013E000E5FC05463868C00505D4FFF7DFFC401B67
:1013F0006428F7D958E0E5681DB1052D3CD0012DD2
:101400003ED0306A20F001003062306A20F00400E3
:1014100039E00027C4F2422700203866FFF7C6FCF7
:10142000022D05460CD100BF3068800154D5FFF76E
:10143000BDFC401B02284FF00300F5D9B0E700BF08
:1014400030688001ABD5FFF7B1FC401B02284FF09C
:101450000300F5D9A4E700210160FFF7A7FC0546CA
:10146000306880077FF531AFFFF7A0FC401B0228F2
:101470004FF00300F4D993E7306A40F00400306283
:10148000306A40F001003062FFF790FC002D054605
:1014900041F2883714D000BF306A800713D4FFF7B9
:1014A00085FC401BB842F7D9032002B0BDE8F081AB
:1014B000FFF77CFC401BB8424FF003003FF670AFD3
:1014C000306A8007F4D4B8F1000F7FF454AFF069AC
:1014D00020F08050F0614EE7206AB0F5803F05D1E2
:1014E0007168A26821F40031114371607168626A09
:1014F00021F4741111430843706001203866FFF72E
:1015000055FC0446306880013FF549AFFFF74EFCBB
:10151000001B02284FF00300F4D941E7411E0020D0
:10152000B0EB116F1CBF012070474EF21002CEF2DB
:10153000000251604EF62351CEF20001F0230B70F1
:1015400007219060116070477047000070470000ED
:10155000B0B590F83C20012A04BF0220B0BD01F1D3
:1015600008053CCDD1E900CE23F47C5322F470521F
:101570001A432EF4F0431A432CF4E0431A4324F4A4
:10158000C0431A432A43C96922F4804203681143C5
:101590005964002180F83C100846B0BD10B590F8A1
:1015A0003C20012A4FF0020231D0012380F83C3068
:1015B00080F83D200268D2F804E0D2F808C00C6838
:1015C0002EF07003234340F2FF74C4F20004A242E1
:1015D000536005DCB2F1804F0ED040F2004307E0CB
:1015E00042F60043C4F201039A4205D040F60003DC
:1015F000C4F200039A4204D149682CF080031943D5
:1016000091600121002280F83D1080F83C201046B6
:1016100010BD0000002804BF0120704710B504462B
:1016200090F83D0028B9002084F83C00204600F0E6
:1016300065F8022084F83D00206840F2FF730268DC
:10164000C4F2000342F6004C9842C4F2010C05DCDF
:10165000B0F1804F0AD040F2004103E0604505D070
:1016600040F60001C4F20001884203D1A16822F0D3
:1016700070020A43984205DCB0F1804F0AD040F274
:10168000004103E0604505D040F60001C4F20001CE
:10169000884203D1216922F440720A43A36922F0EF
:1016A0008001D4F804E0E268194360450160C26239
:1016B000C0F828E002D16169CCF830100121416105
:1016C0000269D20703D0026922F001020261002000
:1016D00084F8461084F83E1084F83F1084F84010D7
:1016E00084F8411084F8421084F8431084F84410C0
:1016F00084F8451084F83D1010BD000080B582B01C
:10170000006840F2FF71C4F20001884217DCB0F1BA
:10171000804F32D040F20041C4F2000188420CD127
:1017200041F21C00C4F20200016841F002010160B4
:10173000006800F002000190019802B080BD40F600
:101740000001C4F2000188422BD042F60041C4F2ED
:1017500001018842F1D141F21C00C4F2020050F8AC
:10176000041C41F4006140F8041C50F8040C00F41F
:1017700000600190019802B080BD41F21C00C4F2EB
:1017800002000168002241F00101016000680021AF
:1017900000F00100019001981C20FFF789FB1C203C
:1017A00012E041F21C00C4F202000168002241F084
:1017B000040101600068002100F00400019001981C
:1017C0001E20FFF775FB1E2002B0BDE88040FFF72A
:1017D0005FBB000090F83D1001291CBF012070473D
:1017E000022180F83D10006840F2FF72C168C4F227
:1017F0000002904241F00101C16005DCB0F1804F70
:101800000ED040F2004107E042F60041C4F201016F
:10181000884205D040F60001C4F20001884206D19A
:10182000816801F00701062904BF002070470168A4
:1018300041F00101016000207047000080B590F880
:101840003C20012A4FF0020200F0C280012380F800
:101850003C3080F83D20D0F800C04FF67772DCF8BD
:10186000083023EA0202CCF808200B684F2B28DC52
:101870001F2B43DD202B44D0302B42D0402B40F097
:10188000A980D1F804E0C968DCF82030DCF8202019
:1018900022F00102CCF82020DCF8182022F0F0021F
:1018A00042EA011123F00A0242EA0E02CCF81810B3
:1018B000CCF82020DCF8081041F0470121F030017D
:1018C0007DE06F2B25DDB3F5005F46D0B3F5805F7B
:1018D00077D0702B7ED1D1E901E3C968DCF808200C
:1018E00043EA0E0322F47F4243EA01211143CCF87C
:1018F0000810DCF8081041F0770160E00BB1102B04
:1019000068D1DCF8081021F07001194341F007019B
:1019100055E0502B34D0602B5CD1D1F804E0C9687D
:10192000DCF82030DCF8202022F01002CCF8202057
:10193000DCF8182022F4704242EA013123F0A002C0
:1019400042EA0E12CCF81810CCF82020DCF808106F
:1019500041F0670121F0100131E0D1E901E3C968EC
:10196000DCF8082043EA0E0322F47F4243EA012117
:101970001143CCF80810DCF8081041F480411EE057
:10198000D1F804E0C968DCF82030DCF8202022F02F
:101990000102CCF82020DCF8182022F0F00242EA04
:1019A000011123F00A0242EA0E02CCF81810CCF81A
:1019B0002020DCF8081041F0570121F02001CCF87C
:1019C00008100022012180F83D10002180F83C1011
:1019D000104680BD0122F5E77047000070B504464F
:1019E0000068C5680669B10716D515F0020113D065
:1019F0006FF002010161012121778069800703D026
:101A00002046FFF7E9FF05E0204600F08DF820466C
:101A100000F002FA00202077700718D515F00400B6
:101A200015D020686FF004010161022121778069DF
:101A300010F4407F03D02046FFF7CEFF05E020469C
:101A400000F072F8204600F0E7F900202077300718
:101A500017D515F0080014D020686FF00801016157
:101A600004212177C069800703D02046FFF7B4FF27
:101A700005E0204600F058F8204600F0CDF900209F
:101A80002077F00618D515F0100015D020686FF0FB
:101A90001001016108212177C06910F4407F03D053
:101AA0002046FFF799FF05E0204600F03DF820466C
:101AB00000F0B2F900202077F00718BF15F0010000
:101AC00002D1300609D412E020686FF001010161F3
:101AD000204600F057FA300609D515F0800006D0F0
:101AE00020686FF0800101612046FFF72DFD700630
:101AF00009D515F0400006D020686FF04001016163
:101B0000204600F071FAB00658BF70BD15F02000F5
:101B100008D021686FF0200220460A61BDE87040BD
:101B2000FFF714BD70BD0000704700002DE9F041C3
:101B300090F83C30012B04BF0220BDE8F0814FEA51
:101B4000B2020123032A80F83C3000F2E980DFE88A
:101B500002F0023A77B3036842F600471E6A1A6A37
:101B6000C4F2010722F001021A621A465C6852F8B8
:101B700018CF8D6826F00206BB4245EA060E06D154
:101B8000CD682EF00C0625F0040545EA060E0E6819
:101B9000BB4205D1D1E9055724F440742C433C43A2
:101BA0002CF0730737435C609F614F6809695F637E
:101BB000C3F820E09F6947F008079F619F6927F0FD
:101BC00004079F61A8E0036842F600451C6A1A6A90
:101BD000C4F2010522F010021A621A46D3F804C0BA
:101BE00052F818EF8E6824F02004AB4244EA061441
:101BF00007D1CE686FF0400724F0C00407EA06164C
:101C000034430E68AB4207D1D1E905872CF4406517
:101C100047EA080745EA870C2EF4E64747EA062715
:101C2000C3F804C09F614F6809699F631C629F6984
:101C300047F400679F619F6927F480679F616AE0AE
:101C4000036842F600451C6A1A6AC4F2010522F4D0
:101C500080721A621A46D3F804C052F81CEF8E68DC
:101C600024F40074AB4244EA062407D1CE6840F263
:101C7000FF47360224F44064BE4334430E68AB424F
:101C800007D1D1E905872CF4405547EA080745EA12
:101C9000071C2EF073073743C3F804C0DF614F6899
:101CA0000969DF631C62DF6947F00807DF61DF69EC
:101CB00027F00407DF612FE0036842F60047D3F8FE
:101CC00020C01A6AC4F2010722F480521A621A462E
:101CD0005C6852F81C5FD1F800E08E68BB4204D10A
:101CE0004F6924F4804444EA87142CF4005747EAEF
:101CF000063725F4E64646EA0E265C60DE614E684D
:101D000009691E641F62DF6947F40067DF61DF69EC
:101D100027F48067DF61090213681943002311600B
:101D2000002180F83C101846BDE8F081002804BF6F
:101D30000120704710B5044690F83D0028B90020F6
:101D400084F83C00204600F065F8022084F83D004D
:101D5000206840F2FF730268C4F2000342F6004CB0
:101D60009842C4F2010C05DCB0F1804F0AD040F279
:101D7000004103E0604505D040F60001C4F20001D7
:101D8000884203D1A16822F070020A43984205DC20
:101D9000B0F1804F0AD040F2004103E0604505D029
:101DA00040F60001C4F20001884203D1216922F407
:101DB00040720A43A36922F08001D4F804E0E2688B
:101DC000194360450160C262C0F828E002D1616930
:101DD000CCF83010012141610269D20703D00269B9
:101DE00022F001020261002084F8461084F83E10BF
:101DF00084F83F1084F8401084F8411084F84210B1
:101E000084F8431084F8441084F8451084F83D1099
:101E100010BD0000704700007047000041B1082964
:101E200009D0042914BF00F1410200F13F0204E08F
:101E300000F13E0201E000F140021278012A1CBFCD
:101E400001207047022241B1082909D0042914BF9A
:101E500080F8412080F83F2004E080F83E2001E037
:101E600080F84020006801F01F010122036A8A40C7
:101E700023EA02010162036A42F64441C4F201010D
:101E80001A43A1F144039842026203D10A6842F462
:101E900000420A6040F2FF71C4F20001884205DC92
:101EA000B0F1804F0ED040F2004107E042F6004111
:101EB000C4F20101884205D040F60001C4F20001DD
:101EC000884206D1816801F00701062904BF00207D
:101ED0007047016841F00101016000207047000077
:101EE00080B5026801F01F0C012303FA0CFE136A8F
:101EF00042F6004C23EA0E031362C4F2010C136A8B
:101F00006245136211D1DCF820C041F211131CEAC2
:101F1000030F0AD1D2F820C040F244431CEA030F59
:101F200003D1536C23F400435364D2F820C041F230
:101F300011131CEA030F06D1D2F820C040F244432B
:101F40001CEA030F12D0082916D0042909D0002951
:101F50004FF0010114BF80F8411080F83E100020BE
:101F600080BD012180F83F10002080BD136823F060
:101F7000010313600829E8D1012180F840100020F6
:101F800080BD0000006840F60001C4F200018842F4
:101F90000CD0B0F1804F26D140F23810C2F20000D0
:101FA000017841F004010170082015E040F238107A
:101FB000C2F20000017841F00201017040F2D42029
:101FC000C2F2000001780131CAB2032A017038BFA1
:101FD000704700210170012040F23811C2F2000167
:101FE0000A7810430870704770470000FEE7000051
:101FF00070B584B040F23C1042F200410024C2F2BD
:102000000000C4F201014FF4807201254FF46023F7
:1020100005260394CDE9014405730475C361C0E945
:10202000001482600661FEF7B5FA002818BFFEF7BB
:10203000CBF901A870C040F23C10C2F2000001A927
:10204000FEF7C8F9002818BFFEF7BEF9012001907D
:102050000620039040F23C100224C2F2000001A9C5
:102060000294FEF7B7F9002818BFFEF7ADF940F269
:102070003C1001940324C2F2000001A90294FEF76F
:10208000A9F9002818BFFEF79FF940F23C1001940F
:1020900004240525C2F2000001A902940395FEF76D
:1020A00099F9002818BFFEF78FF940F23C10C2F2F0
:1020B000000001A9CDE90145FEF78CF9002818BF01
:1020C000FEF782F904B070BD80B582B041F2140011
:1020D000C4F202000168002241F0010101600068C1
:1020E000002100F00100019001980B20FEF7E0FEB6
:1020F0000B2002B0BDE88040FEF7CABE2DE9F04FCC
:1021000085B0002441F21800CDE90344CDE9014433
:10211000C4F20200016840F6004841F0100101607D
:102120000168C4F2010801F01001009100990168F2
:1021300008F5806741F0200101600168002201F08C
:1021400020010091009901684FF4404541F00401DD
:102150000160016801F0040100910099016841F0FB
:102160000801016000684FF4404100F00800009051
:1021700000983846FEF714FEA8F5806B58464FF4D9
:1021800084610022FEF70CFE404643F20201002269
:10219000FEF706FE4FF4005001AE01904FF0030A27
:1021A00038463146CDF808A0FEF7ECFC0195012534
:1021B0004FF0020938463146CDE90254CDF810906F
:1021C000FEF7E0FC4FF48460CDE901055846314646
:1021D000CDE90349FEF7D6FC40463146CDE901542E
:1021E0000394FEF7CFFC43F20200CDE9010540461F
:1021F0003146CDE90349FEF7C5FC40F6F870CDE95C
:10220000010A40463146FEF7BDFC4FF4404001A9AB
:1022100031C140463146FEF7B5FC4FF41840CDE9D8
:10222000010A58463146FEF7ADFC05B0BDE8F08F17
:1022300070B59CB040F60004C4F2010440F2B41042
:10224000002104F51052C2F20000232363268025EA
:10225000CDE91511CDE913111191CDE90F11CDE99A
:102260000D11CDE90B11CDE90911CDE90711CDE92A
:102270000511CDE90311CDE90111C0E90023C0E941
:102280000216C0E904118561FFF7C4F9002818BFE0
:10229000FEF79AF84FF48050139040F2B410C2F257
:1022A000000013A9FFF7CAFA002818BFFEF78CF840
:1022B00040F2B410C2F20000FFF738FD002818BF4A
:1022C000FEF782F840F2B4100025C2F2000010A917
:1022D000CDE91055FFF762F9002818BFFEF774F832
:1022E000602009903220CDE90A0540F2B410C2F214
:1022F000000009A90022CDE90C55CDE90E55FFF7E4
:1023000015FC002818BFFEF75FF840F2B410C2F2C7
:10231000000009A90422FFF709FC002818BFFEF7F6
:1023200053F840F2B4154FF40050C2F200050026F5
:10233000069001A928460596CDE90366CDE9016618
:102340000896FFF705F9002818BFFEF73DF8286842
:1023500040F20041C4F2000188421B96CDE91966A3
:10236000189615D042F60041C4F20101884225D1E9
:1023700041F21800C4F20200016841F0040101605A
:10238000006800F00400179017984FF440700DE0BB
:1023900041F21800C4F20200016841F0040101603A
:1023A000006800F0040017901798C02018900220D1
:1023B00019901B9018A92046FEF7E4FB1CB070BDD5
:1023C00080B586B040F2FC100021C2F2000040F25D
:1023D000E73CCDE90411CDE90211CDE900114FF040
:1023E00080424723C0E9021C01618021C0E900232B
:1023F0008161FFF70FF9002818BFFDF7E5FF4FF4E3
:102400008050029040F2FC10C2F2000002A9FFF7D7
:1024100015FA002818BFFDF7D7FF0020CDE900000E
:1024200040F2FC10C2F200006946FFF7B7F800283E
:1024300018BFFDF7C9FF06B080BD000070B594B0AD
:1024400040F2004540F24420C4F200050021C2F2EF
:102450000000472240F2E733CDE90D11CDE90B1121
:102460000991CDE90711CDE90511CDE90311CDE9B8
:102470000111C0E90052C0E9021301618161FFF757
:10248000C9F8002818BFFDF79FFF4FF480500B904C
:1024900040F24420C2F200000BA9FFF7CFF9002858
:1024A00018BFFDF791FF40F24420C2F20000FFF791
:1024B0003DFC002818BFFDF787FF40F244200024B0
:1024C000C2F2000008A9CDE90844FFF767F8002828
:1024D00018BFFDF779FF6020019040F2E730CDE9A9
:1024E000020440F24420C2F2000001A90022059437
:1024F000FFF71CFB002818BFFDF766FF40F24424DD
:10250000C2F20004002601A9204604220296FFF729
:102510000DFB002818BFFDF757FF2068CDE91266B4
:10252000A8421196109615D042F60041C4F201015E
:10253000884226D141F21800C4F20200016841F03D
:1025400004010160006800F004000F900F984FF440
:1025500040700DE041F21800C4F20200016841F041
:1025600004010160006800F004000F900F98C02083
:10257000109002201190139005F5823010A9FEF7FB
:1025800001FB14B070BD000080B586B040F28C2015
:1025900040F600020021C2F20000C4F2000240F244
:1025A000CF2340F2E73CCDE90411CDE90211CDE99A
:1025B0000011C0E90023C0E9021C01618161FFF73D
:1025C00029F8002818BFFDF7FFFE4FF48050029055
:1025D00040F28C20C2F2000002A9FFF72FF9002878
:1025E00018BFFDF7F1FE0020CDE9000040F28C207D
:1025F000C2F200006946FEF7D1FF002818BFFDF7C0
:10260000E3FE06B080BD0000FEE70000FEE700002C
:102610007047000070470000FEF7CEBB70B594B065
:102620000AAC20462821FDF7CFFD01200A900E902C
:102630004FF4E01000254FF480310226139020461D
:102640000995CDE90755CDE90555CDE90355CDE906
:102650000155CDE90B15CDE91161FEF7C7FD20B19C
:10266000EFF3108072B600BFFEE70F20CDE905063C
:102670004FF48060CDE9080505A802210795FEF713
:10268000D7FC20B1EFF3108072B600BFFEE7022046
:1026900001904FF40040039001A8FEF745FC20B1E3
:1026A000EFF3108072B600BFFEE714B070BD0000FB
:1026B0007047000040F2FC10C2F20000FFF78EB934
:1026C00040F28C20C2F20000FFF788B9FEE700005C
:1026D00080B540F60040C4F2010002210122FEF75D
:1026E0005FFB40F26D10C2F200000721017040F262
:1026F0006C10C2F200000321017080BDB0B540F63D
:102700000004C4F2010404F5806001210125FEF7F4
:1027100039FB40F26D11C2F2000140F20402097867
:10272000C2F20002137805FA01F123EA010501283B
:1027300008BF43EA01051570204620210022FEF75C
:102740002FFB40F26C10C2F2000004210170B0BDFA
:10275000B0B540F60004C4F2010420462021012255
:102760000125FEF71DFB04F5806002210122FEF722
:1027700017FB40F26C10C2F200000570B0BD000003
:1027800040F26C10C2F20000007802A151F8200063
:10279000004700BF5127000809300008D126000873
:1027A000FD2600082D33000840F2D820C2F20000B8
:1027B00090F83510002908BF704790F8341041F0A8
:1027C000040180F83410704740F2D820C2F20000B3
:1027D00090F8341041F0080180F834107047000080
:1027E000A8B0FEF7F7FAFFF719FFFFF787FCFFF72E
:1027F0006BFCFFF7FDFBFFF71BFDFFF7E1FDFFF7AC
:102800001DFEFFF7C1FE0DF19008A8F1080202209D
:1028100040F20311019200BF01389181030402F1DB
:102820000802F9D142F2A970C0F60000249042F2E9
:10283000C970C0F60000269015A8A0F10C02052072
:1028400040F20331009200BF0138030422F80C1F4C
:10285000FAD115A800F1040B42F67170C0F6000021
:10286000169042F67D70C0F60000199042F679701D
:10287000C0F600001C9042F67570C0F600001F9074
:1028800042F68170C0F60000229042F68570C0F6D4
:102890000000179042F6C970C0F600001A9042F688
:1028A000C570C0F600001D9042F6C170C0F6000071
:1028B000209042F6CD7040F60041C0F60000C4F210
:1028C000010123904FF48050ADF83C00A1F58060E9
:1028D00010904FF48060ADF844004FF4004040F297
:1028E000D824ADF84C004FF47A70C2F200040E9177
:1028F00001271291002614900EA920468DF83E70F3
:102900008DF846708DF84E6000F06EF940F2B4110B
:10291000C2F2000120460022462300F075F9A068AB
:10292000A1890122FEF73CFA88480DF1240C089099
:1029300086A0051D40692ECD0D904EF20000C4F218
:102940007650079041F23330C4F29530069044F24D
:102950000000C4F21C6005904FF07C508CE82E0003
:10296000CDE90376029040F2143008AD04AE02AF18
:10297000C2F20000294632463B4600F091F940F28F
:102980006430C2F20000294632463B4600F088F926
:10299000204600F049FBC820FEF7E0F840F2FC10AA
:1029A000C2F20000FEF716FF40F28C20C2F20000D7
:1029B000FEF710FF40F23C1040F27001C2F200003E
:1029C000C2F200016422FDF7E5FE40F238144CF635
:1029D000CD4708F1040AC2F20004CCF6CC471BE054
:1029E00040F2B830C2F200000068A0FB070140F2DC
:1029F00014300909C2F2000000F08AF940F2BC303C
:102A0000C2F200000068A0FB070140F2643009092F
:102A1000C2F2000000F07CF92078400725D520782C
:102A200000F0FB00207040F20400C2F200000078C9
:102A3000C0F3C0018DF89510C0F300118DF89D1002
:102A400000F001018DF85410C0F340018DF86010C2
:102A5000C0F380018DF86C10C0F38011C0098DF8AF
:102A600078108DF88400FFF78BFE2078000719D5C9
:102A7000207800F0F700207040F2D820C2F2000069
:102A800000F070F840F60040C4F201004FF400413D
:102A9000FEF778F930B940F2B410C2F2000000211C
:102AA000FFF71EFA2078800726D42078C007B3D01D
:102AB000207800F0FE002070019902200A7B4B7BF9
:102AC000013843EA420202F003020A73020401F1F0
:102AD0000801F3D10226554606E000BF013E30044E
:102AE00005F108053FF47CAF28780228F6D155F8A7
:102AF000040C8047F2E700BF207800F0FD00207052
:102B00000099052011F80C2F01384B7842EA430256
:102B100002F0030203044A70F4D10526D8460DF1F1
:102B200054090AE009F1080000688047013E09F1F4
:102B30000C09300408F10C08B7D018F8030C002871
:102B4000F0D002284046EFD0F0E700BF00000000C0
:102B5000FF0F00003333534000401C460A000000C2
:102B6000F50F000010B50446FEF720F9204600F0EE
:102B70004FF894F8350001280FD010BB94F83400BA
:102B8000C10717D1810758BF10BD00F0FD0084F8C0
:102B90003400012084F8350010BD94F83A00022872
:102BA00010D0C0B9A2792068A18802F00102FEF716
:102BB000F7F813E000F0FE0084F83400012084F8F8
:102BC000350010BDA2792068A188012323EA020202
:102BD000FEF7E6F802E0012084F83A0004F11C0058
:102BE000BDE8104000F094BBB0B54C6901F1080598
:102BF000D1E900CE2CCD446100F108042CC4C0E919
:102C000000CE89698161B0BD1C3000F09DBA000022
:102C100010B5044690F83400C10607D500F0EF0265
:102C20002068A18884F83420FEF7B2F894F83400C4
:102C300081060AD594F8391000F0DF0084F83400DA
:102C4000B1FA81F0400984F8390094F83400410762
:102C50000CD594F82D1000F0FB0084F8340029B94D
:102C600094F82E0040F0020084F82E0094F834000E
:102C700001070CD594F82D1000F0F70084F834000B
:102C800029B194F82E0040F0040084F82E0094F846
:102C90003400410644BF00F0BF0084F8340010BD8A
:102CA0002DE9F0410F465021984616460446FDF79F
:102CB0008BFA7D698FCF656184E88F0096E80F00FD
:102CC00004F1180C8CE80F00D8E900010025A0627F
:102CD000A06AE162002100F0D6FD002808BFA562CD
:102CE000A06A4FF07E514FF07E5500F0D3FD0028D2
:102CF0004FF0000008BFA56284F8300084F84C0053
:102D00000020C7F6C070E063C4E91100BDE8F0819F
:102D10002DE9F04104460069616388424FF00000EC
:102D200084F84C0084F8300002D86069884204D2EC
:102D3000012084F84C00BDE8F0816668002E00F0A8
:102D4000A180084600F0EAFE0546304600F0E6FEA7
:102D50000146284600F0B8FD4FF07E51054600F0D0
:102D60008BFD002818BF4FF07E5594F82C00A5630A
:102D7000A8B9E06B00F0FF40B0F1FF4F08BFE5637A
:102D8000E76BD4F828802846394601F00FF8014651
:102D9000404600F03FFF394600F0F8FC0546E56389
:102DA000ACB3D4F80C8000214046002700F064FD4D
:102DB00068B3012E08BF4FF07E574FF07E50394662
:102DC00005F0FF4600F0F2FFB6F1FF4F64D0064673
:102DD0002846394600F05EFD00285DD13046294680
:102DE00000F04AFD002857D026784FF07E50294643
:102DF00000F0DCFF0146002E1ABF0846294628468F
:102E000000F062FD414600F005FF054605E00820A0
:102E1000002584F84C00C7F6C07505F0FF40B0F1FE
:102E2000FF4F256400F0A2802846002100F024FD19
:102E300068B3207E04F11C0898E8C00170B32846EE
:102E400000F09CFA05463846294600F0E3FE31467C
:102E500000F09CFC06464046294600F0DBFE014699
:102E6000284600F0D7FE294600F0D4FE314600F097
:102E70008DFC0021054600F0FFFCC8B34FF07E50EA
:102E8000294632E0082084F84C00BDE8F08194F82F
:102E90004C0040F004002FE00220B9E7304600214A
:102EA00000F0F8FC20BB3846002100F0F3FCF8B934
:102EB0004046002100F0E0FCD0B12846314600F049
:102EC00003FD00F05BFA05464FF07E50394600F0F6
:102ED000FBFC06462846414600F0F6FC014630461B
:102EE00000F054FC01464FF07E5000F0EDFC08E08D
:102EF00094F84C0040F0080084F84C000020C7F61D
:102F0000C07000F0FF41B1F1FF4F606408BFBDE841
:102F1000F08149F23331CCF2883100F037FC94F87B
:102F20002C10D9B1A16C01F0FF41B1F1FF4F08BFE6
:102F3000A064A66CA56A314600F038FF0146284619
:102F400000F068FE314600F021FC49F23331C4F252
:102F50008831A06400F01AFC606400E0A06494F87A
:102F60004C00B0FA80F0400984F83000BDE8F081F0
:102F70007047000070470000704700007047000075
:102F80007047000040F2D822C2F2000292F83500E9
:102F900000281EBF002082F83A00704792F83400E3
:102FA000002340F0020082F8340040F2B410C2F274
:102FB00000000021937182F83A30FEF791BF0000C3
:102FC00070470000704700007047000040F2D822B0
:102FD000C2F2000292F8350000281EBF022082F8DB
:102FE0003A00704792F834100120907141F00200CD
:102FF00082F8340040F2B4100223C2F20000002133
:1030000082F83A30FEF76CBF10B540F60040C4F2CB
:103010000100022100220224FDF7C2FE40F26C10E2
:10302000C2F20000047010BD70B50446E1690020D2
:103030000D6884F83500266AE86A00F06FFD4FF0ED
:103040007C5100F0E7FD00F035FD082E06D0042E7F
:1030500006D0002E14BF2864686302E0E86300E035
:10306000A863A068A1890122FDF79AFE2068A188C3
:103070000122FDF795FED4E90701BDE87040FEF797
:10308000CDBE0000B0B5817C4A0704D501F0EB014C
:10309000817400214174817C8A0744BF01F0FD01E5
:1030A0008174817CCA062BD441F0100102688174BE
:1030B0000021D2F800C001814568DCF82C2090F88E
:1030C00010E091B248F21F5401FB0EFEC5F2EB1462
:1030D000AEFB0443C3F34F148C4298BF5A0991B21C
:1030E000082D08D0042D09D0002D14BFCCF84010B5
:1030F000CCF8341004E0CCF83C1001E0CCF83810E7
:10310000018901318AB2C82A018138BFB0BD817CF2
:1031100001F0EF01817403214174B0BD10B5044684
:10312000807CC10706D140F00102D4E90001A274FD
:10313000FEF7D6FEA07C810758BF10BD00F0FC0052
:10314000A0740120607410BDC0E9001240F2262175
:10315000C0F2C801C0F80A1040F22621C181002146
:103160000374A0F8111070472DE9F0410446807CEB
:10317000410704D5002100F0D9006174A074A07C3F
:10318000810744BF00F0FD00A074A07C810605D437
:1031900040F02000A07440F2262020812089A0F178
:1031A00001081FFA88F0A4F8088000F0B7FC217C21
:1031B0000546084600F0B2FC0146284600F02AFD0C
:1031C00048F20001C4F2094100F07EFB2168666804
:1031D0000F680546F96A88B200F088FC0146284667
:1031E00000F018FD0021C4F2C82100F06DFB00F0D2
:1031F00061FC082E06D0042E06D0002E14BF3864C1
:10320000786302E0F86300E0B8635FEA084018BF43
:10321000BDE8F081A07C00F0DF00A07400206074A5
:10322000BDE8F081F0B581B00446807C410704D54B
:1032300000F0F300A07400206074A07C01072BD480
:1032400040F008002568A0742F686668F86A00F0EE
:103250008CF949F69A1249F69913C9F69912C3F6F0
:10326000B97300F095F900F051F9082E208108D0CB
:10327000042E09D0002E14BF07F1400007F13400DE
:1032800004E007F13C0001E007F138000021016093
:1032900028463146FEF7C2FD2089277C411C88B2B2
:1032A0002181216807FB00F240F273735208C7F2D4
:1032B00028730968A2FB03266368CA6AB7EBD61FA6
:1032C00088BFF70996B248F21F557743C5F2EB1550
:1032D000A7FB0575C5F34F17B74298BF6A0992B2AD
:1032E000082B08D0042B04D0002B14BF0A644A63B7
:1032F00002E08A6300E0CA6340F22621884205D3D7
:10330000A07C00F0F700A0740220607401B0F0BD52
:10331000417C02A252F82110084700BF1D3100086D
:1033200025320008853000086931000810B540F6E4
:103330000000C4F20100202101220124FDF730FD2C
:1033400040F26D10C2F2000001780139017040F2C4
:103350006C104AB2C2F20000B2F1FF3FC8BF0324B2
:10336000047010BD00214FF07E5000F0ADBA012175
:1033700000F0C3BD0021084600F0A6BA2DE9F041D7
:103380000026A0F50001B1F1FE4F7DD200F500222C
:103390006FF07E0101EBE251C2F3025477184FF057
:1033A0007E52A0EBC15602EB045557EA040047D009
:1033B0002946304600F0EAF980462946304600F0BA
:1033C000F5FC414600F080FA0546014600F022FC7B
:1033D0008046454900F01EFC444900F0D7F90646F6
:1033E0004146284600F016FC314600F013FC064624
:1033F000384600F07BFB07463D4900F00BFC3D4999
:10340000794451F8241000F0C1F9314600F0BEF9BA
:1034100006460121284600F070FD314600F0B6F95D
:1034200005463846344900F0F5FB3449794451F8F3
:10343000241000F0ABF92946BDE8F04100F0A6B930
:103440004FF07E51304600F0B1FC05462C4900F0AB
:10345000E1FB2C4900F09AF9294600F0DBFB2A49F0
:1034600000F094F9294600F0D5FB6FF0824100F09E
:103470008DF904462946084600F0CCFB214600F0B1
:10348000C9FB0146284600E003E0BDE8F04100F03A
:103490007DB94FF07F42B2EB400F03D2BDE8F0415F
:1034A000FFF765BFB0F1FF4F08BFBDE8F081B0F195
:1034B000004F06D90120FCF7B6FEBDE8F041FFF74A
:1034C00059BF30F0004105D06FF01606172100F00B
:1034D00014FD5BE70220FCF7A6FEFFF743FF80F038
:1034E0000040BDE8F081000066F1CC3EAAAA2A3F68
:1034F000F4FD0538940B00000070313F480B0000CC
:1035000021ED423E0A1180BEC1ABAA3E4FEA410303
:103510004FEA5353A3F58063D3F11E03C8BFD3F121
:10352000210C0CDD4FF0004242EAC12242EA505227
:1035300032FA03FC8CEAE17CACEBE1707047102BB3
:10354000C4BF0020704703F5787CBCF1FF3F04D076
:103550006FF0004282EA2100704770B500F0C2F8B7
:103560004992248000207047F2E7B0FA80F310FA05
:1035700003F10AD0C3F11D0303F580634FEA035240
:103580004FEA415002EBD12170474FF000007047E5
:1035900070B5DFF848C11CEA111E1EBF1CEA1315E6
:1035A0009EEA0C0F95EA0C0F00F06F8081EA03048D
:1035B0004EEAD47EAE4421EA4C1123EA4C1341F486
:1035C000801143F48013AEF17F7EA1FB024CA0FB7F
:1035D0000365361955EB0C05A1FB034C4CF10003B8
:1035E000A0FB021C16EB0C06654153F100030942D7
:1035F00018BF46F0010613F4007F0BD14FEA0331E8
:103600004FEA053041EA155140EA165034036FF095
:1036100003020AE04FEAC3214FEAC52041EA5551AF
:1036200040EA5650F4026FF0020202EB2E4201EB28
:10363000025585EACE710AD05FEA440C18BF24F027
:10364000004450F1000041F1000120EAD47040F242
:10365000FE7C624500D270BDA84214BF4FF080448A
:103660004FF04044002E08BF0024BEF1806FA8BF79
:10367000A1F1C041BDE8704080F2828001F1C041FB
:1036800001F000414FF0000070470CEA13159EEA6C
:103690000C0F18BF95EA0C0F06D081EA030E4FF00D
:1036A00000000EF0004170BD00F01CF88900013EE2
:1036B00000F007B800F009B84FEA430C5FEA5C5C21
:1036C00008D081EA030100F05BB84FEA410C5FEAE1
:1036D0005C5CF6D102494FF0000070470000FF0724
:1036E0000000F87F0EF1020E2EF0030E5EF8046B60
:1036F000364205D4012A43EB030515F5001F12D805
:10370000012841EB010C1CF5001F0CD80ED14FEA2B
:10371000D17C0CEB4C0C0CF1020C15F5001F08BF12
:103720004CEBD37C04E04FF0080C01E04FEAD37C73
:103730000CEB4C0526FA05F606F00706B6F1040C6C
:1037400006D20EEB860CBDE870404CF0010C6047D1
:10375000DFE80CF0090B02024FF00041A1F5002157
:103760004FF0000070BD19461046012851EB0104CE
:1037700018BFD4F5001484BF002001F0004170BDD3
:103780000808A0F500114FEA3101704790EA010FD7
:1037900048BF81F0004100F11083421A3CBF801AFB
:1037A00089184FEAD052A2EBD1534FF07F4C1CEA5C
:1037B000410F18BF9CEA026F00F03B804FF0004CB5
:1037C0004CEA00204CEA012121FA03FC10EB0C0C1E
:1037D0001ED202F1FF325FEA1C2040EBC25038BF1C
:1037E00070471CF07F0F4FEA400C18BFBCF17F4FB1
:1037F00038BF7047C3F12003994008BF20F0010093
:10380000BCF17F4F38BF7047A0F1C04000F0C9BA8B
:103810004FEA3C00000A40EBC25028BF1CF0FF0FEB
:103820004FEA400CE6D018BFBCF17F4F38BF70475D
:10383000EAE79CEA026F05D010EA5C0F08BF00F0CF
:103840000040704710B500F066FA00BF64FBBE3E52
:10385000014800F020BB00BF0000C07F10B500F0A1
:10386000F5F80CBF0120002010BD10B500F0EEF8F7
:1038700014BF0120002010BD10B500F063F98CBF0B
:103880000120002010BD10B500F05CF92CBF012014
:10389000002010BD10B500F089F994BF0120002070
:1038A00010BD10B500F082F934BF0120002010BD1A
:1038B000401058BFC0F14040491058BFC1F14041CD
:1038C0008142EFF3008070474FF47F0C1CEAD01266
:1038D0001EBF1CEAD11392EA0C0F93EA0C0F00F002
:1038E000858090EA010F48BF42F4807240F4000CDA
:1038F00041F400002CF07F4120F07F4000B5A2EBA6
:10390000030281420FF2081CACEB504E9EF800E01F
:10391000C0F100004FEA4E0E00FB0EFC38BF49001C
:103920004FEA2C1C0CFB0EF34FEACE1E0EEB635E2F
:103930004FEA112C0EFB0CFC4FEAC1214FEA1C533D
:1039400000FB031102F5FA024FEA112C0EFB0CFCEE
:103950004FEA01314FEADC4C00FB0C1142EB2242F2
:10396000C14228BF09184CEB03335DF804EB10EBA0
:10397000410143EBC250B2F57C0F38BF704729D5E7
:1039800012F0F00F1CBF00F1C04000F00040704783
:10399000008182838485868788898B8C8D8E8F9128
:1039A0009293959697999A9C9D9FA0A2A3A5A7A84C
:1039B000AAACAEB0B2B3B5B7B9BCBEC0C2C5C7C978
:1039C000CCCED1D4D7D9DCDFE2E6E9ECF0F3F7FADC
:1039D000FE0000004FEA400C0CF1807CBCF17E4FF1
:1039E00028BF7047B0F1C04000F0DBB90CEAD1133A
:1039F00090EA010F48BF42F48072624538BF6345C8
:103A000007D213F47F0F16D080EA010000F00040C7
:103A1000704710B500F07FF9097EFC3E00F005B854
:103A200080EA010000F00040704780EA010000F0E9
:103A3000004000F0B6B912F47F0F04BF024870478F
:103A400080EA010000F0ADB90000C07F50EA010C2F
:103A500000F113801CF5000F58BFBCF5000F01D416
:103A60008842704707D710F5000F58BF11F5000FB7
:103A700015D488427047894270471CF5000F04D561
:103A8000BCF5000FF7D5814270474FF0807C1CEBEE
:103A9000400F38BF1CEB410F01D28142704710B577
:103AA00000F039F9922449004FF000504FF0805156
:103AB000FFF7FEBE41000B0ED3F19E0208D950F471
:103AC00000034FEA032323FA02F048BF4042704745
:103AD00010B500F020F900BF499224800020704703
:103AE0006FF0004282EA20007047000010F00041B1
:103AF00048BF4042B0FA80F310FA03F2C3F19D03CD
:103B00000BD051EAC35101EB1220530638BF704766
:103B100000F1010008BF20F001007047B0FA80F307
:103B200010FA03F2C3F19D030AD0D90501EB12206C
:103B3000530638BF704700F1010008BF20F00100B4
:103B40007047000050EA010C00F113801CF5000FD3
:103B500058BFBCF5000F01D48842704707D710F555
:103B6000000F58BF11F5000F15D4884270478942E5
:103B700070471CF5000F04D5BCF5000FF7D5814246
:103B800070474FF0807C1CEB400F38BF1CEB410F9F
:103B900001D28142704710B500F0BDF8922449006F
:103BA0004FF080504FF00051FFF782BE50EA010CF9
:103BB00000F113801CF5000F58BFBCF5000F01D4B5
:103BC0008842704707D710F5000F58BF11F5000F56
:103BD00015D488427047894270471CF5000F04D500
:103BE000BCF5000FF7D5814270474FF0807C1CEB8D
:103BF000400F38BF1CEB410F01D28142704710B516
:103C000000F089F8922449004FF000504FF08051A5
:103C1000FFF74EBE4FF47F0C1CEAD0121EBF1CEA09
:103C2000D11392EA0C0F93EA0C0F00F0478090EA50
:103C3000010F48BF42F480724FF0004C4CEA002064
:103C40004CEA012102EB0302A0FB0113A2F50002E2
:103C5000002918BF43F001035B0028BF4FEA33037C
:103C600042EB22425FEA132C4CEBC2502EBFBCEB5E
:103C7000436FB2F57C0F70474FEA036CBCF1004F05
:103C800008BF20F00100B2F57C0F38BF70470BD59C
:103C900082F0FF0212F5803FC8BF704700F1C040BC
:103CA000D8BF00F00040704700F5000C5FEA4C0CF4
:103CB00048BF7047B0F1C04000F073B80CEAD113B0
:103CC00090EA010F48BF42F48072624538BF6345F5
:103CD00004D280EA010000F00040704710B500F007
:103CE0001AF800BF8900013E00F007B800F009B8DB
:103CF0005FEA410C5FEA1C6C08D080EA010000F02A
:103D000050B85FEA400C5FEA1C6CF6D14FF00040FF
:103D1000A0F5800070470EF1020E2EF0030E5EF843
:103D2000044B244204D44FEA4102B2F17F4F11D830
:103D30004FEA4003B3F17F4F0CD80ED14FEAD07C4D
:103D40000CEB4C0C0CF1020CB2F17F4F08BF4CEBAA
:103D5000D17C04E04FF0080C01E04FEAD17C0CEB81
:103D60004C0324FA03F404F00704B4F1040C06D263
:103D70000EEB840CBDE810404CF0010C6047DFE80E
:103D80000CF0070802024FF00040A0F5800010BDC3
:103D90000846420018BFD2F1807288BF00F0004090
:103DA00010BDFF2141EAD050C005704790EA010FD5
:103DB00048BF81F000413FF5F0AC421A04D882F0D0
:103DC0000042A0EB020011444FEAD052A2EBD153C3
:103DD0004FF07F4C1CEA410F18BF9CEA026F4AD09B
:103DE0004FF0004C4CEA00204CEA012121FA03FC80
:103DF000B0EB0C0C0FD412F0FE0F36D05FEA4C0083
:103E00001DD5001240EBC25038BF70471CF03F0F69
:103E100018BF70470BE05FEA1C20A2F1010240EBE3
:103E2000C25038BF70471CF07F0F18BF7047C3F1F6
:103E30002003994014BF401E20F0010070474FEA54
:103E40001223800808BF7047B0FA80FCA2EB0C0276
:103E5000CCF1280C60FA0CF093EA122F04BF00EBAF
:103E6000C25070474FEAC3707047130A5FEADC1014
:103E700008BF7047F6E79CEA026F04D010EA5C0FB7
:103E800008BF0020704710B5FFF745FF40DFF63E42
:103E900081F0004070470CF00F03092B08BF082089
:103EA00000F051800A2B0BD0082B18BF704708BFB9
:103EB0001CF0400F0AD04FF000004FF00001704797
:103EC0001CF0400F18BF4FF0004070471CF0100F5F
:103ED00008D000F07F4220F0704342EAD3014FEA5D
:103EE0004370704700F0604021F07F4242EA0002D8
:103EF00001F07F4040EA727070474FF0FF0212EA13
:103F0000D0521CBF92F0FF038B42C2BFD14200EBE4
:103F1000C1507047002A0AD0002B0BD000F000409F
:103F20000029A4BF40F0FE4040F40000704700F0BC
:103F30000040704743024FF00B0C18BF4CF0806CF0
:103F40007FF486AC70471CF4801F11D01CF4E02F66
:103F500003D06FEACC31490070474FF04050EFF387
:103F6000008222F0704242EA000282F30088704729
:103F70004FF0000070470000000000000030F13DED
:103F80000070643E0000A33E0090CF3E0090F83EDB
:103F900000400F3F00E0203F0000000015B78337CE
:103FA000CDE37B380EE1C53860F69138AF5F0F384E
:103FB000E1BC3E3823F44739000000000000000057
:103FC00001020304060708090102020304050607AB
:103FD00008090A0B0C0D0E0F10100000004000081D
:103FE0000000002010000000280100081040000818
:103FF00010000020C009000044010008000000007B
:1040000000127A00FF010000100000000000000014
:04000005080000ED02
:00000001FF
